:020000040800F2
:1000000000080020B90000082D0100082D0100089B
:100010002D0100082D0100082D0100082D01000808
:100020002D0100082D0100082D0100082D010008F8
:100030002D0100082D0100082D0100082D010008E8
:100040002D0100082D0100082D0100082D010008D8
:100050002D0100082D0100082D0100082D010008C8
:100060002D0100082D0100082D0100082D010008B8
:100070002D0100082D0100082D0100082D010008A8
:100080002D0100082D0100082D0100082D01000898
:100090002D0100082D0100082D0100082D01000888
:1000A0002D0100082D0100082D0100082D01000878
:1000B000350C00082D01000880B584B000AF164B48
:1000C000FB60164BBB60164A144BD31A7B6007E0EB
:1000D000BB685A1CBA60FA68511CF96012781A7031
:1000E0007B685A1E7A60002BF2D10E4BBB600E4A21
:1000F0000C4BD31A7B6004E0BB685A1CBA60002228
:100100001A707B685A1E7A60002BF5D100F08AF8CD
:10011000C046BD4604B080BDF312000800000020B8
:100120000C0000200C0000205001002080B500AF22
:10013000FEE7C04680B582B000AF7860C0467B68FD
:100140005A1E7A60002BFAD1C046BD4602B080BD6F
:1001500080B500AF0D4B0D4A12680D490A401A6078
:100160000A4B0A4A126801210A431A60C046074B2B
:100170001B6804221340FAD0064B064A126801217C
:100180000A431A60C046BD4680BDC046001002400A
:10019000FFFFFFFE0C10024080B500AF0A4B0A4A79
:1001A000126802210A431A60084B084A126840216B
:1001B0000A431A60054B054A126880218A431A6077
:1001C000C046BD4680BDC0462C1002400004005011
:1001D00080B582B000AF7860396000F053F900F06C
:1001E00031F90E4B1800FFF7A5FF3A687B68110044
:1001F000180000F013FB0A4B180000F0FDF900F0A6
:10020000F7F8C04600F096F903001A0020231340C7
:10021000F8D0C046BD4602B080BDC04640420F0087
:10022000EC12000880B586B000AF00237B6100238C
:100230003B61FFF78DFFFFF7AFFF96239B0118008F
:1002400000F020FC00F0D4FE00F052F81B4B180028
:1002500000F0D2F9194B180000F0A8F900F012F9DB
:10026000762000F0EFF9002000F020FA002000F0E6
:10027000A7FA032000F076FA002000F045FA582192
:10028000092000F01FF900F0B3F800F0EBF83B1D77
:10029000180000F063F900F08DF8031EF7D0084B4A
:1002A0002021180000F012FB054B180000F0A0FD03
:1002B000044B180000F09CFDE9E7C046EC12000872
:1002C0000C000020F012000880B582B000AF78600A
:1002D00004E0FA23DB001800FFF72CFF7B685A1EAE
:1002E0007A60002BF5D1C046BD4602B080BDC04645
:1002F00080B500AF294B294A126803210A431A60CE
:10030000274B274A126880218A431A60244B244ACB
:10031000126840210A431A60214B214A1268214980
:100320000A401A601E4B1E4A1268802149000A4387
:100330001A601B4B1A4A12681B490A401A60184B74
:10034000174A12688021C9000A431A60A023DB05FE
:10035000A022D205126813490A401A60A023DB05C7
:10036000A022D2051268802149000A431A60A02306
:10037000DB05A022D20512680C490A401A60A023AE
:10038000DB05A022D205126809490A401A6000F074
:100390004BF800F01FF8C046BD4680BD2C1002404F
:1003A00000040050FFFDFFFFFFF7FFFFFFFF7FFF8F
:1003B000FFFFBFFF80B500AF054B1A6880231B010C
:1003C000134001D0012300E000231800BD4680BD8A
:1003D0001000005080B500AF044B044A1268082199
:1003E0008A431A60C046BD4680BDC0461404005012
:1003F00080B500AF044B044A126808210A431A6012
:10040000C046BD4680BDC0461404005080B500AF54
:10041000044B044A126810218A431A60C046BD4644
:1004200080BDC0461400005080B500AF044B044AA4
:10043000126810210A431A60C046BD4680BDC046FE
:100440001400005080B500AF054B054A126810211A
:100450000A431A600120FFF737FFC046BD4680BD42
:100460001404005080B500AF054B054A12681021F6
:100470008A431A600120FFF727FFC046BD4680BDB2
:100480001404005080B500AF054B054A12682021C6
:100490000A431A600320FFF717FFC046BD4680BD20
:1004A0001404005080B500AF054B054A12681021B6
:1004B0008A431A600320FFF707FFC046BD4680BD90
:1004C0001404005080B582B000AF78600A00FB1CB5
:1004D0001A70FFF79BFF7B68DBB2180000F0D6FDB7
:1004E000FB1C1B78180000F0D1FDFFF79DFFC046F4
:1004F000BD4602B080BDC04690B585B000AF786003
:10050000FFF784FF7B68DBB21033DBB2180000F02A
:10051000BDFD0F23FC18002000F0B8FD0300237080
:10052000FFF782FF0F23FB181B781800BD4605B0AC
:1005300090BDC04690B583B000AFFFF767FFFC1DCC
:10054000102000F0A3FD03002370FFF76DFFFB1DDB
:100550001B781800BD4603B090BDC04680B584B07E
:1005600000AF7860FFF752FF102000F08FFD03000E
:100570001A007B681A700023FB600DE0002000F079
:1005800085FD030019007A68FB68D31801330A1C43
:100590001A70FB680133FB60FB68092BEEDDFFF787
:1005A00043FFC046BD4604B080BDC04680B582B0A2
:1005B00000AF7860FFF72AFF052000F067FD7B6839
:1005C00003331B78180000F061FD7B6802331B7851
:1005D000180000F05BFD7B6801331B78180000F009
:1005E00055FD7B681B78180000F050FDFFF71CFFDD
:1005F000C046BD4602B080BD80B582B000AF786015
:10060000FFF704FF222000F041FD7B6803331B78D5
:10061000180000F03BFD7B6802331B78180000F0E7
:1006200035FD7B6801331B78180000F02FFD7B68D7
:100630001B78180000F02AFDFFF7F6FEC046BD4605
:1006400002B080BD90B585B000AF78607B68DB05F7
:10065000DB0D7B607B68DBB219000020FFF732FF07
:100660000F23FC180120FFF747FF030023700F231F
:10067000FB180F22BA18127801218A431A707B687E
:100680001B125AB20F23FB181B785BB213435AB2EA
:100690000F23FB181A700F23FB181B781900012079
:1006A000FFF710FFC046BD4605B090BD90B585B0C0
:1006B00000AF78600F23FC180120FFF71DFF030037
:1006C00023700F23FB180F22BA18127802218A43D5
:1006D0001A707B685B005BB2022213405AB20F2390
:1006E000FB181B785BB213435AB20F23FB181A7026
:1006F0000F23FB181B7819000120FFF7E3FEC0460B
:10070000BD4605B090BDC04690B585B000AF7860DD
:100710000F23FC180120FFF7EFFE030023700F23C7
:10072000FB180F22BA18127820218A431A707B68AE
:100730005B015BB2202213405AB20F23FB181B78D7
:100740005BB213435AB20F23FB181A700F23FB1826
:100750001B7819000120FFF7B5FEC046BD4605B065
:1007600090BDC04690B585B000AF78600F23FC18EF
:100770000120FFF7C1FE030023700F23FB180F2297
:10078000BA1812780C218A431A707B689B005BB2FE
:100790000C2213405AB20F23FB181B785BB2134391
:1007A0005AB20F23FB181A700F23FB181B7819007D
:1007B0000120FFF787FEC046BD4605B090BDC0468C
:1007C00090B585B000AF78600F23FC180120FFF7CB
:1007D00093FE030023700F23FB180F22BA18127820
:1007E00010218A431A707B681B015BB210221340F0
:1007F0005AB20F23FB181B785BB213435AB20F2374
:10080000FB181A700F23FB181B7819000120FFF743
:1008100059FEC046BD4605B090BDC04680B584B007
:1008200000AF786039603B68202B02D901235B421E
:100830001EE03B68DBB219000420FFF743FEFFF720
:10084000E5FD202000F022FC0023FB6009E0FB68AE
:100850007A68D3181B78180000F018FCFB68013385
:10086000FB60FA683B689A42F1D3FFF7DDFD002395
:100870001800BD4604B080BD90B585B000AF78606B
:1008800039603B68202B02D901235B4219E0FFF756
:10089000BDFD212000F0FAFB0023FB600AE0FB68AD
:1008A0007A68D418002000F0F1FB03002370FB6885
:1008B0000133FB60FA683B689A42F0D3FFF7B4FD5E
:1008C00000231800BD4605B090BDC04690B585B068
:1008D00000AF786039603B68202B02D901235B426E
:1008E00019E0FFF793FD242000F0D0FB0023FB600C
:1008F0000AE0FB687A68D418002000F0C7FB030008
:100900002370FB680133FB60FA683B689A42F0D3BE
:10091000FFF78AFD00231800BD4605B090BDC04614
:1009200090B583B000AF7860FFF770FD232000F032
:10093000ADFB002000F0AAFB03001A007B681A70D0
:100940007B685C1C002000F0A1FB030023707B6827
:100950009C1C002000F09AFB030023707B68DC1CC9
:10096000002000F093FB03002370C0461800BD4632
:1009700003B090BD90B585B000AF78603960184B7A
:100980001B68002B02D101235B4224E00023FB60A3
:100990000AE0FB685A1CFA603A68D418114B180038
:1009A00000F0EAF9030023707B68013B1A00FB6842
:1009B0009A4205D90B4B180000F00EFA031EE8D13D
:1009C000FB68002B06D03A68FB68D31800221A7027
:1009D000FB6800E000231800BD4605B090BDC0468E
:1009E000480100203000002090B585B000AF78604D
:1009F0003960204B1B68002B02D101235B4234E09D
:100A00001D4B180000F0E8F90300BB60BB688022B2
:100A1000D21A7B689A4202D202235B4225E000236D
:100A2000FB600BE03A68FB68D3181A78124B110090
:100A3000180000F069F9FB680133FB607B68FA6815
:100A40009A42EFD30D4B1B68082213400CD10B4B7D
:100A50000A4A126808210A431A60094C064B18001A
:100A600000F08AF90300236000231800BD4605B09A
:100A700090BDC04648010020BC000020004400405A
:100A80002844004080B584B000AF786072B6544B03
:100A9000882200219950524B88229A58504B842129
:100AA0005A504F4B84229A584D4B80215A504D4BEF
:100AB0008822002199504B4B88229A58494B842117
:100AC0005A50484B84229A58464B80215A50464BE4
:100AD00001221A60454B00221A60454B444A1268B5
:100AE00001210A431A60434B424A1268802189025D
:100AF0000A431A60A023DB05A022D20512683E49F2
:100B00000A431A60A023DB05A022D2051268102137
:100B10008A431A60A023DB05A022D2051268374958
:100B20000A401A60364B364A126836490A431A6040
:100B3000334B334A126820218A431A60304B304AC3
:100B40001268520052081A602F4B2F4A12682F4920
:100B50000A401A602C4B2C4A12688021C9000A43B3
:100B60001A602B4B2A4A1268120112091A60284B8C
:100B7000274A12688021C9050A431A60254BFB6089
:100B80007968F86800F0C6FA0300FB60224B224A3D
:100B9000126822490A401A60214B00221A60214B38
:100BA00000221A60204B00221A60204BFA681A605B
:100BB0001B4B1B4A126864210A431A60184B184ADF
:100BC000126801210A431A60194B194A12688021E0
:100BD00049050A431A6062B6C046BD4604B080BDEE
:100BE00030000020BC000020480100202C00002024
:100BF0002C1002403810024020000080FFFFFFBF91
:100C00000C0000501000004020000050FFF0FFFFDB
:100C1000240000500024F40028100240FFFFFDFFD4
:100C20000044004004440040084400400C4400409C
:100C300000E100E080B500AF084B1B688022134044
:100C400001D000F025F8054B1B682022134001D08D
:100C500000F006F8C046BD4680BDC0461C440040BA
:100C600080B500AF074B1B68DAB2074B11001800C4
:100C700000F04AF8031E02D0044B01221A60C0465D
:100C8000BD4680BD24440040300000202C000020E0
:100C9000B0B500AF164B180000F09EF8031E07D049
:100CA000144C134B180000F067F8030023601BE09E
:100CB000114B114A126808218A431A600F4B1B68B6
:100CC0004022134005D00E4B0D4A126840210A43C2
:100CD0001A600A4B1B688022134005D0094B094A51
:100CE000126810210A431A60C046BD46B0BDC04616
:100CF000BC00002028440040004400401C44004048
:100D0000204400401844004080B582B000AF7860B5
:100D10000A00FB1C1A707B6880229A587B68842129
:100D20005B589A4206D17B6888229B58002B01D0E1
:100D300001231DE072B67B6880229B58591C7A689B
:100D4000802011507A68F91C0978D1547B68882278
:100D50009B585A1C7B6888215A507B6880229B587C
:100D6000802B03D17B6880220021995062B600233A
:100D70001800BD4602B080BD80B584B000AF786079
:100D80007B6888229B58002B01D1002320E072B69B
:100D90007B6884229B58591C7A68842011500F224A
:100DA000BA187968CB5C13707B6884229B58802BBF
:100DB00003D17B688422002199507B6888229B584C
:100DC0005A1E7B6888215A5062B60F23FB181B7885
:100DD0001800BD4604B080BD80B582B000AF786019
:100DE0007B6888229B581800BD4602B080BDC04673
:100DF00080B582B000AF78600B4B1B68002B09D127
:100E000001235B420BE07B685A1C7A6019000120C9
:100E1000FFF7EAFD7B681B78002BF4D10023180054
:100E2000BD4602B080BDC0464801002090B585B0E7
:100E300000AF786039601F4B1B68002B02D1012383
:100E40005B4232E00023FB600B23FB1800221A7088
:100E500018E0C046184B1800FFF7BEFF031EF9D07C
:100E60000B23FC18144B1800FFF786FF03002370B8
:100E7000FB685A1CFA601A007B689B180B22BA1890
:100E800012781A703B685A1EFB689A4204DD0B23E5
:100E9000FB181B780D2BDCD1FB68002B04DDFB68F5
:100EA0007A68D31800221A70FB681800BD4605B096
:100EB00090BDC046480100203000002080B582B0BF
:100EC00000AF78607B68002B07DB7B68092B04DCB4
:100ED0007B68DBB23033DBB203E07B68DBB23733F5
:100EE000DBB21800BD4602B080BDC04680B586B0FA
:100EF00000AF786008237B610823FA187B69D31858
:100F000000221A707B69013B7B6113E07B680F2232
:100F100013401800FFF7D2FF030019000823FA1846
:100F20007B69D3180A1C1A707B681B097B607B697C
:100F3000013B7B617B69002BE8DA0823FB18180072
:100F4000FFF756FFC046BD4606B080BD80B500AF76
:100F5000034B1800FFF740FF03001800BD4680BD9B
:100F60003000002080B584B000AF0200FB1D1A7075
:100F70000223FB600823FA18FB68D31800221A70BA
:100F8000FB68013BFB6016E0FB1D1B780F22134042
:100F90001800FFF793FF030019000823FA18FB68F5
:100FA000D3180A1C1A70FB1DFA1D127812091A7048
:100FB000FB68013BFB60FB68002BE5DA0823FB18AC
:100FC0001800FFF715FFC046BD4604B080BDC046FF
:100FD00080B500AF054B1B680822134001D10123E7
:100FE00000E000231800BD4680BDC046004400401C
:100FF00080B582B000AF1D4B1C4A126880214901A8
:101000000A431A601A4B1A4A1268C021C9020A43DD
:101010001A60A023DB05A022D205126815490A40F8
:101020001A60A023DB05A022D2051268A8210902BC
:101030000A431A60104B104A1268C02109010A4382
:101040001A600E4B0D4A12681203120B1A600C4BF9
:101050001B687B600B4BD92292001A600A4B00225E
:101060001A60C046BD4602B080BDC0463410024082
:1010700030100240FFABFFFF08000050200000507E
:1010800008300140003001400430014080B584B098
:1010900000AF0200FB1D1A701B4BFB60C0461B4BD0
:1010A0001B688022134004D0FB685A1EFA60002B94
:1010B000F5D1174AFB1D1B781370134BFB60C0461C
:1010C000124B1B688022134004D0FB685A1EFA6042
:1010D000002BF5D10C4BFB60C0460C4B1B6801226A
:1010E000134004D1FB685A1EFA60002BF5D1084A60
:1010F0000B23FB1812781A700B23FB181B781800AF
:10110000BD4604B080BDC04640420F0008300140DB
:101110000C30014003460B437FD4002243088B422E
:1011200074D303098B425FD3030A8B4244D3030B6E
:101130008B4228D3030C8B420DD3FF22090212BA33
:10114000030C8B4202D31212090265D0030B8B42AF
:1011500019D300E0090AC30B8B4201D3CB03C01A99
:101160005241830B8B4201D38B03C01A5241430B74
:101170008B4201D34B03C01A5241030B8B4201D364
:101180000B03C01A5241C30A8B4201D3CB02C01ACF
:101190005241830A8B4201D38B02C01A5241430A47
:1011A0008B4201D34B02C01A5241030A8B4201D336
:1011B0000B02C01A5241CDD2C3098B4201D3CB01DD
:1011C000C01A524183098B4201D38B01C01A52418C
:1011D00043098B4201D34B01C01A524103098B4290
:1011E00001D30B01C01A5241C3088B4201D3CB007B
:1011F000C01A524183088B4201D38B00C01A52415E
:1012000043088B4201D34B00C01A5241411A00D20D
:1012100001465241104670475DE0CA0F00D0494276
:10122000031000D34042534000229C4603098B42E6
:101230002DD3030A8B4212D3FC22890112BA030A6E
:101240008B420CD3890192118B4208D389019211F0
:101250008B4204D389013AD0921100E08909C30975
:101260008B4201D3CB01C01A524183098B4201D377
:101270008B01C01A524143098B4201D34B01C01A62
:10128000524103098B4201D30B01C01A5241C308DA
:101290008B4201D3CB00C01A524183088B4201D349
:1012A0008B00C01A5241D9D243088B4201D34B0064
:1012B000C01A5241411A00D20146634652415B10A6
:1012C000104601D34042002B00D549427047634687
:1012D0005B1000D3404201B5002000F005F802BDCC
:0C12E0000029F8D016E770477047C046A0
:0712EC00DEADB0550D0A0054
:0C12F30048656C6C6F20576F726C6400D3
:0400000508000000EF
:00000001FF
